:100000000C942A000C9477030C948C030C944700F6
:100010000C9447000C9447000C9447000C941E036A
:100020000C9447000C9447000C9447000C94470034
:100030000C9447000C9447000C9447000C94470024
:100040000C9447000C9447000C9447000C94470014
:100050000C94470011241FBECFE5D8E0DEBFCDBF12
:1000600010E0A0E6B0E0ECE4F8E002C005900D92EC
:10007000AC3BB107D9F720E0ACEBB0E001C01D927A
:10008000A43DB207E1F70E94A1030C9424040C9450
:100090000000C6980895C69A0895CF93DF93C82F9D
:1000A000D62F662311F0C79A01C0C798C7FF02C0B8
:1000B000C29A01C0C298C6FF02C0C39A01C0C398C9
:1000C000C5FF02C0C49A01C0C498C4FF02C0C59A4B
:1000D00001C0C59800C00E944B0082E08A95F1F7EC
:1000E00000C00E944900C3FF02C0C29A01C0C2986A
:1000F000C2FF02C0C39A01C0C398C1FF02C0C49A24
:1001000001C0C498C0FF02C0C59A01C0C59800C014
:100110000E944B0092E09A95F1F700C00E944900BE
:10012000C29AC39AC49AC59AD11108C0C43030F497
:100130008FE999E10197F1F700C003C095ED9A9519
:10014000F1F70000DF91CF91089560E00C944D002D
:1001500080580C94A500882329F0813021F490E484
:10016000960F01C0962F80E8890F0C94A50081E0BE
:100170000C94A50082E00C94A50061E00C944D0065
:10018000CF93DF93EC018991882319F00E94BD0081
:10019000FACFDF91CF910895CF93DF93FC01849143
:1001A000EF012196882321F00E94BD00FE01F7CFC8
:1001B000DF91CF910895BE9ABF9ABA9ABB9ABC9A22
:1001C000BD9A0E944900C798C29AC39AC49AC59A18
:1001D0008FE59AEE0197F1F700C00000C298C3982E
:1001E00000C00E944B0092E09A95F1F700C00E9477
:1001F00049008FE090E40197F1F700C000000E94F1
:100200004B0092E09A95F1F700C00E9449008FE8F8
:1002100091E00197F1F700C000000E944B0092E0CE
:100220009A95F1F700C00E94490085ED8A95F1F793
:100230000000C59800C00E944B0092E09A95F1F72B
:1002400000C00E94490085ED8A95F1F70000C5982D
:1002500000C00E944B0092E09A95F1F700C00E9406
:10026000490082E08A95F1F700C0C29A00C00E945E
:100270004B0092E09A95F1F700C00E94490085ED8D
:100280008A95F1F7000088E00E94A5000E94B7005F
:1002900086E00E94A5008CE00C94A50085B78160E3
:1002A00085BF85B7826085BF8BB780648BBF85B7FC
:1002B000846085BF85B7886085BF8BB780688BBF3A
:1002C00008958EB58B608EBD1DBC1CBC89EF90E07F
:1002D0009BBD8ABD89B7806189BF089511BA8FEF30
:1002E00082BB84BB81E085BBB89AB99AC09AC19899
:1002F00008950E94DB000E94B70082E990E00E940E
:10030000C00080EC0E94A50083EA90E00E94C0003B
:1003100087EC0E94A500809161004AE067EC70E0E4
:1003200090E00E94EF030E94C0008DEC0E94A500A7
:10033000809160004AE067EC70E090E00E94EF037B
:100340000C94C000282F3FEF89EF90E0315080409F
:100350009040E1F700C0000090B3892F90E002C008
:10036000959587952A95E2F78170992721E0822754
:10037000089587990EC087E090E00E94A20101973E
:1003800031F49091D10081E089278093D100879B3F
:10039000FECF089580EC0E94A50082EB90E00E94C1
:1003A000C00085EC0E94A50082EB90E00E94C00096
:1003B0008BEC0E94A50082EB90E00E94C0008FECC5
:1003C0000E94A50082EB90E00E94C0008091BD00D9
:1003D000813069F018F0823099F0089580EC0E9425
:1003E000A50084EB90E00E94C00085EC11C085EC74
:1003F0000E94A50084EB90E00E94C0008BEC08C036
:100400008BEC0E94A50084EB90E00E94C0008FEC72
:100410000E94A50086EB90E00C94C00084992AC04D
:1004200084E090E00E94A201019711F51092C400AF
:100430008091D10082608093D1008091BE008F5F57
:100440008093BE0081EC0E94A5008AEB90E00E94A0
:10045000C00081EC0E94A5008091BE004AE067ECDC
:1004600070E090E00E94EF030E94C0000E94CA0169
:10047000849BFECF089580EC0E94A50082EB90E063
:100480000E94C00085EC0E94A50082EB90E00E94D3
:10049000C0008BEC0E94A50082EB90E00E94C0009F
:1004A0008FEC0E94A50082EB90E00C94C00080913C
:1004B000BE00823021F1833009F498C0813009F008
:1004C000A2C09091C4008091BF00981709F49BC00E
:1004D0008091C4008093BF008091C4008093BD00D0
:1004E0000E94CA0183EC0E94A50089EB90E00E9463
:1004F000C00083EC0E94A5008091C40045C080919B
:10050000BD0081110AC08091C400843008F07BC016
:100510008091C4008093BC0008958130E9F59091EA
:10052000C4008091BF00981709F46DC08091C40089
:100530008A3010F48AE005C08091C4008B3F18F027
:100540008AEF8093C4008091C4008093BF00209103
:10055000C4002093610030E040E050E068E97AE3B5
:1005600080E090E00E94AE033093D3002093D2004D
:1005700087EC0E94A50088EB90E00E94C00087EC09
:100580000E94A500809161004AE067EC70E090E075
:100590000E94EF030C94C0008230A9F59091C40032
:1005A0008091BF00981779F18091C400811102C039
:1005B00081E005C08091C400813118F080E1809312
:1005C000C4008091C4008093BF008091C4008093D8
:1005D00060008DEC0E94A50089EB90E00E94C000B5
:1005E0008DEC0E94A50080916000CECF1092BD00DE
:1005F0001092C4001092BE008091D1008D7F809334
:10060000D1000C943B020895F8940E9461010E946D
:100610004E0178940E946E010E9479012091610040
:1006200030E040E050E068E97AE380E090E00E944A
:10063000AE033093D3002093D20008951F920F92FF
:100640000FB60F9211242F933F938F939F93809116
:10065000C5009091C60001969093C6008093C50096
:100660002091C5003091C6008091D2009091D300B6
:100670002817390798F18091D10080FF2FC0109280
:10068000C6001092C5009091C3009F5F9093C30075
:100690008091C2008F5F8093C2002091600092170A
:1006A00010F01092C300883011F0821750F01092B1
:1006B000C20098B381E0892788BB98B382E089277C
:1006C00088BB15BA25B381E090E00090C20002C05B
:1006D000880F991F0A94E2F7822B85BB9F918F9117
:1006E0003F912F910F900FBE0F901F9018951F9262
:1006F0000F920FB60F9211248F93829B07C083999C
:1007000005C08091C4008F5F8093C4008F910F90CB
:100710000FBE0F901F9018951F920F920FB60F9259
:1007200011248F93839B07C0829905C08091C400D8
:1007300081508093C4008F910F900FBE0F901F9037
:1007400018950E9404030E94B9010E940E02809134
:10075000D10081FFF8CF0E945702F5CF052E97FBFD
:100760001EF400940E94C50357FD07D00E94CD03DC
:1007700007FC03D04EF40C94C5035095409530957A
:1007800021953F4F4F4F5F4F0895909580957095FD
:1007900061957F4F8F4F9F4F0895A1E21A2EAA1B9C
:1007A000BB1BFD010DC0AA1FBB1FEE1FFF1FA21721
:1007B000B307E407F50720F0A21BB30BE40BF50B1E
:1007C000661F771F881F991F1A9469F760957095A7
:1007D000809590959B01AC01BD01CF010895BB2789
:1007E0004A3031F4992322F4BDE2909581959F4FD0
:1007F0000C94FB03BB27FB015527AA27880F991FE1
:10080000AA1FA41710F0A41B83955051B9F7A05D3F
:10081000AA3308F0A95DA193009779F7B111B193BC
:100820001192CB010C941404DC01FC01672F71912F
:100830007723E1F7329704C07C916D9370836291C6
:0C084000AE17BF07C8F30895F894FFCF6F
:10084C00100A010101010101010101010101010174
:10085C000101642D2D2D642D2D2D642D2D2D642D38
:10086C0064641C1F211F262426282C2E2C2E2C2E93
:10087C002C2E7C4D6F64657C54656D706F7C456E61
:10088C00647C007C203E3E207C20202020207C208C
:0C089C0020207C005B005D00202020007C
:00000001FF
