:100000000C942A000C9424010C9439010C944700A0
:100010000C9447000C9447000C9447000C94C400C7
:100020000C9447000C9447000C9447000C94470034
:100030000C9447000C941A010C9447000C94470050
:100040000C9447000C9447000C9447000C94470014
:100050000C94470011241FBECFE5D8E0DEBFCDBF12
:1000600010E0A0E6B0E0E0E0FCE002C005900D92F8
:10007000A63DB107D9F720E0A6EDB0E001C01D9282
:10008000AE3EB207E1F70E94C4040C94FE050C9446
:1000900000008091DD00883088F0C19BC19AC09932
:1000A000C09815BA35B32091DD00285081E090E06A
:1000B00001C0880F2A95EAF7832B10C0C09BC09A15
:1000C000C199C19815BA25B381E090E00090DD0098
:1000D00002C0880F991F0A94E2F7822B85BB08950E
:1000E0000E9449008091DD008F5F8093DD00909138
:1000F0006000891710F01092DD0008950E944900F9
:100100008091DD0081508093DD008F3F29F4809144
:10011000600081508093DD0008958091E10082FDB0
:1001200017C00E9449008091DD0091E0980F9093E4
:10013000DD0020916000921308C09091E10094606E
:100140009093E10081508093DD008091DD000EC02E
:100150000E9449008091DD0081508093DD00811173
:1001600005C09091E1009B7F9093E1008CB90895C8
:100170000E9449000E94970560E170E00E94E2043D
:100180008093DD008CB908951F920F920FB60F92E5
:1001900011242F933F934F935F936F937F938F938C
:1001A0009F93AF93BF93EF93FF938091DF00909164
:1001B000E00001969093E0008093DF002091DF0043
:1001C0003091E0008091E2009091E3002817390718
:1001D00000F18091E10080FF1CC01092E0001092BD
:1001E000DF008091D600811102C00E9470008091D2
:1001F000D600813011F40E947E008091D6008230BA
:1002000011F40E948D008091D600833011F40E9479
:10021000B800FF91EF91BF91AF919F918F917F9126
:100220006F915F914F913F912F910F900FBE0F9063
:100230001F9018951F920F920FB60F9211240F90D6
:100240000FBE0F901F9018951F920F920FB60F922E
:1002500011248F93829B07C0839905C08091DE0093
:100260008F5F8093DE008F910F900FBE0F901F90D5
:1002700018951F920F920FB60F9211248F93839BA4
:1002800007C0829905C08091DE0081508093DE0016
:100290008F910F900FBE0F901F90189588E18AB92B
:1002A00086E880BD10BC87E689B9579A089585B75E
:1002B000816085BF85B7826085BF8BB780648BBF47
:1002C00085B7846085BF85B7886085BF8BB7806838
:1002D0008BBF08958EB58B608EBD1DBC1CBC88E1A4
:1002E00090E09BBD8ABD89B7806189BF089511BA2E
:1002F0008FEF82BB84BB81E085BBB89AB99AC19A63
:10030000C0980895F8940E946A010E9457010E94C3
:100310004E0178940C947701C6980895C69A089572
:10032000CF93DF93C82FD62F662311F0C79A01C051
:10033000C798C7FF02C0C29A01C0C298C6FF02C0D8
:10034000C39A01C0C398C5FF02C0C49A01C0C49833
:10035000C4FF02C0C59A01C0C59800C00E948E01AA
:1003600082E08A95F1F700C00E948C01C3FF02C0B1
:10037000C29A01C0C298C2FF02C0C39A01C0C3980A
:10038000C1FF02C0C49A01C0C498C0FF02C0C59A90
:1003900001C0C59800C00E948E0192E09A95F1F7C5
:1003A00000C00E948C01C29AC39AC49AC59AD11106
:1003B00008C0C43030F48FE999E10197F1F700C02B
:1003C00003C095ED9A95F1F70000DF91CF91089564
:1003D00060E00C94900180580C94E801811102C0F7
:1003E00080E803C0813021F480EC860F0C94E80192
:1003F000089581E00C94E80182E00C94E80161E04A
:100400000C949001CF93DF93EC018991882319F02C
:100410000E94FF01FACFDF91CF910895CF93DF9330
:10042000FC018491EF012196882321F00E94FF01B5
:10043000FE01F7CFDF91CF910895BE9ABF9ABA9A85
:10044000BB9ABC9ABD9A0E948C01C798C29AC39A63
:10045000C49AC59A8FE59AEE0197F1F700C00000A3
:10046000C298C39800C00E948E0192E09A95F1F75D
:1004700000C00E948C018FE090E40197F1F700C06A
:1004800000000E948E0192E09A95F1F700C00E9450
:100490008C018FE891E00197F1F700C000000E9405
:1004A0008E0192E09A95F1F700C00E948C0185EDD3
:1004B0008A95F1F70000C59800C00E948E0192E075
:1004C0009A95F1F700C00E948C0185ED8A95F1F7AD
:1004D0000000C59800C00E948E0192E09A95F1F745
:1004E00000C00E948C0182E08A95F1F700C0C29A98
:1004F00000C00E948E0192E09A95F1F700C00E9420
:100500008C0185ED8A95F1F7000088E00E94E801F2
:100510000E94F90186E00E94E8018CE00C94E80159
:100520000E941D020E94F90186E990E00E940202E9
:1005300080EC0E94E80187EA90E00E94020287ECCA
:100540000E94E801809161004AE064EE70E090E072
:100550000E94A7050E9402028DEC0E94E801809192
:1005600060004AE064EE70E090E00E94A7050C9401
:10057000020280E80E94E80186EB90E00E940202FD
:1005800085E80E94E80186EB90E00E9402028BE879
:100590000E94E80186EB90E00E9402028FE80E9430
:1005A000E80186EB90E00E94020280EC0E94E801E4
:1005B00086EB90E00E94020285EC0E94E80186EB47
:1005C00090E00E9402028BEC0E94E80186EB90E032
:1005D0000E9402028FEC0E94E80186EB90E00C94EE
:1005E00002028091D600813099F028F08230E9F043
:1005F000833041F1089581EC0E94E80188EB90E09E
:100600000E94020281EC0E94E8018DEB90E026C07E
:1006100081EC0E94E80188EB90E00E94020281ECEC
:100620000E94E80182EC90E019C081EC0E94E80190
:1006300088EB90E00E94020281EC0E94E80187ECC6
:1006400090E00CC081EC0E94E80188EB90E00E94F1
:10065000020281EC0E94E8018CEC90E00C94020212
:100660008091D800813009F03FC080E80E94E80105
:1006700086EB90E00E94020285E80E94E80186EB8A
:1006800090E00E9402028BE80E94E80186EB90E075
:100690000E9402028FE80E94E80186EB90E00E942F
:1006A00002028091D700813069F018F0823099F011
:1006B000089580E80E94E80181ED90E00E94020226
:1006C00085E853C085E80E94E80181ED90E00E9432
:1006D00002028BE84AC08BE80E94E80181ED90E0BD
:1006E0000E9402028FE841C0823009F044C080ECD1
:1006F0000E94E80186EB90E00E94020285EC0E94D5
:10070000E80186EB90E00E9402028BEC0E94E80177
:1007100086EB90E00E9402028FEC0E94E80186EBDB
:1007200090E00E9402028091D700813069F018F0B9
:10073000823099F0089580EC0E94E80181ED90E00C
:100740000E94020285EC11C085EC0E94E80181ED57
:1007500090E00E9402028BEC08C08BEC0E94E80142
:1007600081ED90E00E9402028FEC0E94E80183ED8F
:1007700090E00C94020208958091D8008230B9F084
:10078000833009F4B5C0813009F0BFC09091DE001C
:100790008091D900981709F4B8C08091DE00809349
:1007A000D9008091DE008093D7000C9430038091B3
:1007B000D70081112EC08091E10080FDA6C08091FC
:1007C000DE009091D900891709F49FC08091DE0066
:1007D000981730F48091D600843010F48F5F09C0F0
:1007E0008091DE00891738F48091D600882319F0B3
:1007F00081508093D6000E94F1028091D600813012
:1008000029F4809160008093DD006DC01092DD00BE
:100810006AC08130B1F58091DE009091D9008917CE
:1008200009F473C02091DE0080916100921720F4DA
:100830008A3F10F48F5F07C02091DE00291728F44B
:100840008B3018F08150809361002091610030E07E
:1008500040E050E060EF79E482E090E00E94F6042E
:100860003093E3002093E20087EC0E94E80189EBDB
:1008700090E00E94020287EC0E94E80180916100F2
:100880002AC0823009F041C08091DE009091D900E9
:100890008917D9F18091DE00981730F480916000BB
:1008A000803110F48F5F09C08091DE00891738F421
:1008B00080916000823018F08150809360008DEC50
:1008C0000E94E8018AEB90E00E9402028DEC0E94F7
:1008D000E801809160004AE064EE70E090E00E94E0
:1008E000A7050E9402028091DE008093D90008953E
:1008F0001092D7001092DE001092D8008091E10093
:100900008D7F8093E1000C94B902089587991BC0F4
:100910002FEF89EF90E0215080409040E1F700C038
:10092000000080B390E0880F892F881F990B892BD6
:1009300019F0879BFECF08959091E10081E089270F
:100940008093E100F6CF089584991DC02FEF89EFC1
:1009500090E0215080409040E1F700C00000849B6F
:1009600003C0849BFECF08951092DE008091E100C9
:1009700082608093E1008091D8008F5F8093D800DF
:100980000E943003EECF08950E9490020E948201DF
:100990002091610030E040E050E060EF79E482E0D7
:1009A00090E00E94F6043093E3002093E2000E945E
:1009B00086040E94A4048091E10081FFF8CF0E9488
:1009C000BC03F5CF97FB072E16F4009407D077FDF4
:1009D00009D00E94150507FC05D03EF4909581953D
:1009E0009F4F0895709561957F4F0895052E97FB51
:1009F0001EF400940E940D0557FD07D00E942905A2
:100A000007FC03D04EF40C940D055095409530959D
:100A100021953F4F4F4F5F4F08959095809570956A
:100A200061957F4F8F4F9F4F0895AA1BBB1B51E1CC
:100A300007C0AA1FBB1FA617B70710F0A61BB70B4E
:100A4000881F991F5A95A9F780959095BC01CD01F3
:100A50000895A1E21A2EAA1BBB1BFD010DC0AA1FFF
:100A6000BB1FEE1FFF1FA217B307E407F50720F017
:100A7000A21BB30BE40BF50B661F771F881F991F92
:100A80001A9469F760957095809590959B01AC01DB
:100A9000BD01CF0108958F929F92AF92BF92CF92E6
:100AA000DF92EF92FF92CF93DF93EC01688179811F
:100AB0008A819B81611571058105910521F464E2AC
:100AC00079ED8BE597E02DE133EF41E050E00E94B6
:100AD000F60449015A019B01AC01A7EAB1E40E9466
:100AE000DC056B017C01ACEEB4EFA50194010E9422
:100AF000EA05DC01CB018C0D9D1DAE1DBF1DB7FFAE
:100B000003C00197A109B04888839983AA83BB8356
:100B10009F77DF91CF91FF90EF90DF90CF90BF90C4
:100B2000AF909F908F9008950E944B05089582E9A1
:100B300090E00E944B050895A0E0B0E08093920001
:100B400090939300A0939400B09395000895BB27D1
:100B50004A3031F4992322F4BDE2909581959F4F5C
:100B60000C94B305BB27FB015527AA27880F991FB3
:100B7000AA1FA41710F0A41B83955051B9F7A05DCC
:100B8000AA3308F0A95DA193009779F7B111B19349
:100B90001192CB010C94CC05DC01FC01672F719103
:100BA0007723E1F7329704C07C916D937083629153
:100BB000AE17BF07C8F308950E94EF05A59F900DDB
:100BC000B49F900DA49F800D911D11240895B7FF2F
:100BD0000C94DC050E94DC05821B930B0895A29FF8
:100BE000B001B39FC001A39F700D811D1124911D01
:100BF000B29F700D811D1124911D0895F894FFCFAF
:100C0000100A0101010101010101010101010101BC
:100C10000101642D2D2D642D2D2D642D2D2D642D80
:100C200064641C1F211F262426282C2E2C2E2C2EDB
:100C30002C2E010000007C4D6F64657C54656D7046
:100C40006F7C456E647C007C203E3E207C20202012
:100C500020207C2020207C002020202000203E3EE0
:100C60002000203C3C2000203C3E200072616E644D
:060C7000005B005D0000C6
:00000001FF
